:1000000002002E220000000000000000000000009E
:10002000000000000000000000000002029875813E
:100030004312020BE582600302009A780079007A8D
:10004000007B007C007D00EC4D601C88828983E48D
:1000500093A3A882A9838A828B83F0A3AA82AB830D
:100060001CBCFFE31D80E07582007583007C007D71
:1000700000EC4D600AE4F0A31CBCFFF51D80F27596
:1000800082007583007C007D00EC4D600AE4F0A3E3
:100090001CBCFFF51D80F212000312037680FE5493
:1000A000656D7020446574656374696F6E00537488
:1000B000617475733A204163746976650025352E45
:1000C000336620000A00486F75736520697320420B
:1000D00075726E696E67008582E0A2E792A1D2A375
:1000E000A2A292F7C2A3A2E692A1D2A3A2A292F6E2
:1000F000C2A3A2E592A1D2A3A2A292F5C2A3A2E4B6
:1001000092A1D2A3A2A292F4C2A3A2E392A1D2A3EB
:10011000A2A292F3C2A3A2E292A1D2A3A2A292F2BD
:10012000C2A3A2E192A1D2A3A2A292F1C2A3A2E091
:1001300092A1D2A3A2A292F0C2A385F08222AA82A7
:10014000C28C5389F0438901EA24FA5006EA24FB61
:10015000FA80027A018A1C751D00751E00751F0049
:1001600090FFEA74FFF5F0120525AA82AB83C28DD9
:100170008B047D008C8C7B008A8AD28C308DFD2292
:10018000AA82AB837C007D00C3EC9AED9B502B7E52
:1001900000BE0400501D7582FAC002C003C004C036
:1001A00005C00612013ED006D005D004D003D0020F
:1001B0000E80DE0CBC00D10D80CE22D2B375822819
:1001C00012013EC2B322AA828AE0A2E792B7A2E657
:1001D00092B6A2E592B5A2E492B4C0021201BB7538
:1001E000822812013ED0028AE0A2E392B7A2E292F4
:1001F000B6A2E192B5A2E092B40201BBAA82C2B259
:100200008A821201C6900005020180758E1175E682
:100210000075E70075D60075D70075CE0075CF0064
:1002200075C60075C700C2A0C2A3D2A2438780755D
:100230009852759B00759AF4759B1E75AE004387A6
:1002400080759852759B00759AF4759B1E75C80051
:1002500075CBEA75CA6775CDFF75CCFFD2ADD2CA32
:10026000D2AF75820022C2B3900014120180758251
:10027000331201FC7582331201FC7582321201FCCB
:100280007582281201FC75820C1201FC7582011224
:1002900001FC900014020180C2CFB28032AA82C257
:1002A000A0758201C0021200D7D002EAC454F0FA4D
:1002B00074804AF5821200D7AA8274035AFC7B002C
:1002C000758200C003C0041200D7AA82D004D003F4
:1002D0007D00EA2BFBED3CFCD2A08B828C8322AA12
:1002E00082D2B28A821201C6900002020180AA82E2
:1002F000AB83ACF07402B51A047DC080027D808DA2
:1003000082C002C003C0041201FC900005120180EB
:10031000D004D003D0027D007E00ED2AFFEE3BF832
:100320008C018F82888389F0120509FF60208F82FB
:10033000C002C003C004C005C0061202DFD006D050
:1003400005D004D003D0020DBD00CF0E80CC30000C
:10035000248D028E03C3EA9410EB648094805015C0
:10036000758220C002C0031202DFD003D0020ABA95
:1003700000E30B80E0229001F41201801202667506
:100380001A01D20090009F75F0801202EE751A02D9
:10039000D2009000AE75F0801202EE9000FA1201C9
:1003A0008075820012029D120593AA82AB83ACF085
:1003B000FDC002C003C004C00590126F75F08374C5
:1003C000401205CFAA82AB83ACF0FDE58124FCF599
:1003D00081E4C0E074C0C0E0747FC0E07444C0E059
:1003E0008A828B838CF0ED1206B3AA82AB83ACF0C9
:1003F000FDE58124FCF581C002C003C004C0059066
:10040000000075F0C874421205CFAE82AF83A8F029
:10041000F9E58124FCF581E4C0E07480C0E07488D3
:10042000C0E07443C0E08E828F8388F0E91206A892
:10043000AA82AB83ACF0FDE58124FCF581C002C04B
:1004400003C004C005C002C003C004C00574BDC021
:10045000E07400C0E07480C0E0120687E58124F9F2
:10046000F581751A02D2009000AE75F0801202EE8E
:1004700074C4C0E07400C0E07480C0E01206871548
:100480008115811581900019120180D005D004D00A
:1004900003D002E4C0E0C0E074F0C0E07441C0E00A
:1004A0008A828B838CF0ED12059FAA82E58124FC61
:1004B000F581EA6047751A02D2009000C675F08097
:1004C0001202EE7A007B00C3EA9403EB940040032F
:1004D00002039BC2CA75CB7075CA00D2CA90006471
:1004E000C002C003120180D003D002C2CA75CBFD86
:1004F00075CAD8D2CA0ABA00CE0B80CBC2CA75CB95
:10050000FD75CAD8D2CA02039B20F71430F61488AE
:1005100083A88220F507E6A88375830022E280F78E
:10052000E49322E022AAF0FBE582851CF0A4FCAD56
:10053000F0E583851CF0A42DFDE435F0FEE5828511
:100540001DF0A42DFDE5F03EFEE433FFEA851CF02E
:10055000A42EFEE5F03FFFE583851DF0A42EFEE509
:10056000F03FFFE582851EF0A42EFEE5F03FFFEB95
:10057000851CF0A42FFFEA851DF0A42FFFE58385DD
:100580001EF0A42FFFE582851FF0A42F8EF08D832F
:100590008C8222E4AC83AB82FAF9748E0207DBFF13
:1005A000A8811818120803D2D133E6400730E70BB0
:1005B0007582012220E70675820022C2D11207E56A
:1005C000E97003F5822230D101B3E433F5822212BF
:1005D00008B0BC000302084FEF60FA30D502B2D178
:1005E000E583B4FF03020865E582B4FF03020865F2
:1005F000258340072482400B02084F2483145003B4
:10060000020865F582EA8DF0A4A8F0EA8EF0A4282D
:10061000F8E435F0F9EB8DF0A428E935F0F9E4338E
:10062000CA8FF0A429F9EA35F0FAEBF88EF0A42984
:10063000F9EA35F0FAE433FBEC8DF0A429F9EA3558
:10064000F0FAE43BFBE88FF0A42AFAEB35F0FBE488
:1006500033CCFD8EF0A42AFAEB35F0FBE43CFCED44
:100660008FF0A42BFBEC35F0FC20E70312087D0291
:10067000082E02126A85823085833185F032851B0F
:1006800033900672020CBDC008858108E50824FB82
:10069000F533E50824FBF886300886310886329069
:1006A0000672120CBDD00822A8811818C6B2E7C67F
:1006B00002127F1208B030D502B2D1BF0009BC00CF
:1006C00003020872020865BC000302084FE583B408
:1006D000FF0BE582B4FF0302087202084FE582B403
:1006E000FF03020865C395835007247F400B02086F
:1006F0004F2480145003020865C0E0E4CCCBCAF953
:100700008D1C8E1D8F1EEF54F0C4F51F758306855A
:100710001FF0EB84F582E9C4F9EAC4FAEBC4FBEC00
:10072000540FC47803D6FC18EBD6FB18EAD6FA852A
:1007300082F0EDA4A8F0FD8582F0EEA428FEE43559
:10074000F0F88582F0EFA428FFE435F0F8E99DF990
:10075000EA9EFAEB9FFBEC98FCAD1CAE1DAF1E3081
:10076000E7101582E92DF9EA3EFAEB3FFBE43CFC89
:1007700080EDC082D58398C3E933F9EA33FAEB33CD
:10078000FBEC33FCC3E99DEA9EEB9FEC9400B3E4E1
:1007900013F9D002D0E0C44AFAD003D0E0C44BFB36
:1007A000D004D0E0F5F0540FC44CFCD08215823058
:1007B000F40FD3EC13FCEB13FBEA13FAE913F9057E
:1007C00082E930E70A74012AFAE43BFBE43CFC02CC
:1007D0000846FCABF0AA83A982749EC2D1F58212AE
:1007E000087D02082E7901AA82E68F82B58213184D
:1007F000E6B5F00E18E6B5830918E68A82B58202DE
:10080000790022B4800FE5F0700AE5837006E58276
:1008100070027F00EFB6801518B6001018B6000BF6
:1008200018B6000608080876002208080822B980D1
:1008300003EA13B34010EA2401FAE43BFBE43CFC76
:1008400050047C800582BC000EBB000BBA0008E49B
:10085000F5F0F583F58222A2D1E582138CF092F7B0
:100860008B838A8222E4F583F58275F080F4A2D12D
:100870001322E4F583F58275F0C0747F227804ECCE
:100880007011E58224F8500AF582E4C9CACBFCD87D
:10089000EF22EC7820058220E713D5820122C3E9FC
:1008A00033F9EA33FAEB33FBEC33FCD8EA15822256
:1008B000AA82AB83A2F73392D16002D2F7F582AC61
:1008C000F0E58124F9F8E6FD08E6FE0886F008E682
:1008D000A2F73392D56002D2F7F583AFF022AA8255
:1008E00074EFC0E07408C0E0C022C0238A822205F1
:1008F00029E4B52902052A22AA8274302AFA24C6DC
:10090000500A74072AFA3001034302208A8202083F
:10091000DEE582FAC4540FF582C0021208F8D00254
:10092000740F5AF5820208F8AA24AB25AC26AD272D
:10093000AE28752F20EE2EFEED235401FF4206EA6D
:100940002AFAEB33FBEC33FCED33FDC3EE952B4081
:1009500008EEC3952BFE430201D52FD98A248B259F
:100960008C268D278E28227840E624D075F00AA4A4
:10097000FA7841E624D02AFA783F8603BB2D04C3D7
:10098000E49AFA752B01C3E464808AF063F08095E1
:10099000F05029752F038A0374F6252F401C052B70
:1009A000E52F142434F8E52F2434F98704A60477BE
:1009B0002E1BEBFA6004052F80DE8B02EA30E70D78
:1009C000783586037836A6037835762E0AE52D60CD
:1009D0000AE52D04FB252BF52B8005300C02052B99
:1009E00078348603E4BB2D0104FB70062007033036
:1009F0000802052B300503020AAE300657EB600CE7
:100A000075822DC0021208DED002801C30070C75E2
:100A1000822BC0021208DED002800D30080A7582D7
:100A200020C0021208DED00278358604BC2E0C7578
:100A30008230C0021208DED002152CAC2C152CC35B
:100A4000E52B9C4003020AF2758230C0021208DED8
:100A5000D00280E7AC2C152CC3E52B9C500C758282
:100A600020C0021208DED00280EA78348604BC2D51
:100A70000C75822DC0021208DED002801C30070CDB
:100A800075822BC0021208DED002800D30080A7574
:100A90008220C0021208DED00278358604BC2E52B5
:100AA000758230C0021208DED002152C8044EB6043
:100AB0000E75822DC0021208DED002152C80203067
:100AC000070E75822BC0021208DED002152C800F93
:100AD00030080C758220C0021208DED002152C7876
:100AE000358603BB2E0C758230C0021208DED002A0
:100AF000152C752F01C20EE52F2434F88603BB4553
:100B000003020BAFBB2E348A03C3E464808BF06313
:100B1000F08095F0500F758230C0031208DED003CC
:100B20001B8B0280E48B02D20EE52D7038200C0363
:100B3000020BAF75822E1208DE8074300E278A03F6
:100B4000EB30E71FC3E46480852DF063F08095F0FF
:100B5000500C758230C0031208DED003152D0B8BAC
:100B60000280DD8B02300E0EC3E46480852DF063BD
:100B7000F08095F05021E52F2434F886038B82C055
:100B8000021208DED002300E0EE52F2434F8860360
:100B9000BB2E028002152D152CC3E46480852DF038
:100BA00063F08095F04003200E05052F020AF7C37D
:100BB000E46480852DF063F08095F0500A758230F2
:100BC0001208DE152D80E830050FAA2C152CEA60DE
:100BD000087582201208DE80F122E52D7003300CAA
:100BE0000D7407252DFAE52CC39AF52C8006E52C0B
:100BF00024FAF52C752F0078348602BA2B0F2007C3
:100C00000C78347620200805752F01052C20051955
:100C1000AA2CC3E464808AF063F08095F0500A75D2
:100C200082201208DE152C80E7C20EE52F2434F84E
:100C30008602BA00028069BA451F3001027665C398
:100C4000E46480852DF063F08095F0500A75823061
:100C50001208DE152D80E8D20EC3E52F9402E4338E
:100C6000FA7014EA700EC3E46480852DF063F0809E
:100C700095F04003300E16E52F2434F886028A8260
:100C80001208DEE52F24FD5012152D800E7402B5DA
:100C90002F09300C0675822E1208DE052F020C2B50
:100CA000300519AA2CC3E464808AF063F08095F0C3
:100CB000500A7582201208DE152C80E722858222D8
:100CC000858323E4F529F52AAA30AB31AC328A8238
:100CD0008B838CF0120509FD74012AF530E43BF595
:100CE000318C32EDFA7003021263BA2502800302DE
:100CF000125BC205C206C207C208C209C20AC20B01
:100D0000C20CC202C203C204752B00752C00752DE3
:100D1000FFAB30AC31AD328B828C838DF012050984
:100D2000FAA3AB82AC838B308C318D32BA25078A23
:100D3000821208DE80928A06BE3000402E8A06EEBD
:100D400024C6402774FFB52D13E52C75F00AA4FEC8
:100D5000EA24D02EF52C70BFD20680BBE52D75F0AD
:100D60000AA4FEEA24D02EF52D80ACBA2E0A74FF18
:100D7000B52DA4752D00809F8A06BE6100400E8AA5
:100D800006EE248540075302DFD2018002C201BA79
:100D900020028075BA2303020E18BA2A03020E1D20
:100DA000BA2B02805FBA2D028055BA4202805FBA28
:100DB0004303020E62BA4403020F9DBA4503020FB9
:100DC000B7BA4603020FB3BA4703020FBBBA4903CF
:100DD000020F9DBA4C02803BBA4E03020FBFBA4FBE
:100DE00003020FA4BA5003020F36BA5303020E8651
:100DF000BA5503020FA9BA5803020FAE020FE9D287
:100E000005020D17D207020D17D208020D17D20ADC
:100E1000020D17D20B020D17D20C020D1774FFB57D
:100E20002D20300A0BE53314F88833862C020D1779
:100E3000E53324FEF888338606088607188E2C02D0
:100E40000D17300A0BE53314F88833862D020D1781
:100E5000E53324FEF888338606088607188E2D02AF
:100E60000D17300A0AE53314F888338602800FE53F
:100E70003324FEF888338603088604188B028A829E
:100E80001208DE020FEEE53324FDF88833860308EE
:100E9000860408860518188B248C258D268B828C59
:100EA000838DF0121410AB82AC838B2E74FFB52DA2
:100EB00003852E2D20051DC3E52E952C5016E52CFF
:100EC000C3952EF52CAB2C152CEB600875822012E7
:100ED00008DE80F18524828525838526F0120509A8
:100EE000FBFA6029AB2D152DC3E464808BF063F011
:100EF0008095F050188A821208DEAB24AC25AD260E
:100F00000BBB00010C8B248C258D2680C72005038C
:100F1000020FEEC3E52E952C4003020FEEE52CC325
:100F2000952EF52CAB2C152CEB7003020FEE758271
:100F3000201208DE80EEE53324FDF88833860308AE
:100F4000860408860518188B248C258D26E526FB3B
:100F500030E7047A438013EB546060047A50800ACF
:100F6000EB30E6047A4980027A588A82C00212087D
:100F7000DE75823A1208DE7582301208DE758278DC
:100F80001208DED002BA4902800BBA5002800685F0
:100F900025821209118524821209118051D2097506
:100FA0002B0A804A752B088045752B0A8040752BCB
:100FB00010803BD2028037D2038033D204802FE5E9
:100FC0003324FDF88833860308860408860518183C
:100FD0008B248C258D268B828C838DF0E529121332
:100FE000F7A3E52A1213F780058A821208DE200291
:100FF00006200303300470E53324FCF888338603AD
:101000000886040886050886061818188B248C257F
:101010008D268E27E524E525E526E5278B828C8322
:101020008DF0EE1212D874FFB52D03752D06300425
:1010300027747F5527FB8B28E528EB2BFB8B28E5B6
:101040002630E70674014528F528E528246840067F
:10105000749925284002D203300306120BDA020CE1
:10106000C8120967020CC8E52B7003020CC87B3953
:10107000300A2BE53314F88833E6FC3395E0FDFEA7
:10108000FF8C248D258E268F2720095EAC247D00C1
:101090007E007F008C248D258E268F27804C300B80
:1010A0001FE53324FCF88833860408860508860685
:1010B0000886071818188C248D258E268F27802ADD
:1010C000E53324FEF88833860408860518ED339549
:1010D000E0FEFF8C248D258E268F2720090CAC2462
:1010E000AD257E007F008E268F27300C43E52445FA
:1010F000254526452760397408B52B0C758230C00C
:10110000031208DED00380287410B52B23758230BB
:10111000C0031208DED00330010C758278C00312C0
:1011200008DED003800A758258C0031208DED0039F
:10113000300925AC24AD25AE26E527FF30E717C3DF
:10114000E49CFCE49DFDE49EFEE49FFF8C248D2541
:101150008E268F278002C209752E00D20D8B007556
:101160002800C000120928D000200D0DE528C4FC7D
:10117000E6FD4CF61888038002A628052EB20DE580
:101180002445254526452770D68803E52C70037530
:101190002C0120061A200517E52E04FCC3952C50BF
:1011A0000E758220C0031208DED003152C80E930B2
:1011B000090E75822DC0031208DED003152C802481
:1011C000E52E602030070E75822BC0031208DED09A
:1011D00003152C800F30080C758220C0031208DE26
:1011E000D003152C20051EAC2C152CC3E52E9C50CD
:1011F000273006047C3080027C208C82C0031208D9
:10120000DED00380E2C3E52E952C5009E52CC39572
:101210002EF52C8003752C008B00AB2E152EEB6069
:1012200022B20D200D0A08E6C4540FFB8B2880075C
:101230008603740F5BF528852882C0001208F8D059
:101240000080D7200503020CC8AB2C152CEB7003D3
:10125000020CC87582201208DE80EE8A821208DE37
:10126000020CC8852982852A8322AA82BA0A08101C
:10127000990280FB75990D10990280FB8A992212C0
:1012800008B07900E583B58202800D50031214384E
:10129000E583C39582121452E5D0C465D020E117CE
:1012A000EA2DFAEB3EFBEC3FFC500974011214529C
:1012B000EC4480FC02082EC3EA9DFAEB9EFBEC9FF7
:1012C000FC500FC3E499F9E49AFAE49BFBE49CFC1C
:1012D000B2D112087D02082EC0E0F8458245834550
:1012E000F07009F5F0FBFCFDFE0213A6E823A2F75F
:1012F00092E0F8A982AA83D2F7ABF07C007E07C304
:10130000749798404074FF2EFE740A89F0A4F98502
:10131000F082740A8AF0A4FA85F083740A8BF0A430
:10132000FB740529F9EA3582FAEB3583FB74003545
:10133000F0FCC3EC13FCEB13FBEA13FAE913F90816
:10134000EC70EF80BAE8C3947FF88B838EF0E4FBF7
:10135000FCFDFEFF08C3E933F9EA33FAE58333F510
:1013600083EB3BD4FBEC3CD4FCED3DD4FDEE3ED412
:10137000FEEF3FD4FF602D05F074052BD4FBE43C59
:10138000D4FCE43DD4FDE43ED4FEE43FD4FF7582BA
:1013900004C3EF13FFEE13FEED13FDEC13FCEB1390
:1013A000FBD582EDD8AF7834D0E020E704762B80EF
:1013B00002762D087906E7C4540F4430F608B906C2
:1013C00003762E08E7540F4430F60819B902E77681
:1013D0004508E5F020E704762B8004762DF4040818
:1013E00075F00A844430F608E5F04430F608E4F677
:1013F00090003475F0402220F71030F6118883A851
:101400008220F507F6A88375830022F280F7F02288
:10141000AA82AB83ACF07D007E008A828B838CF045
:10142000120509FFA3AA82AB83EF60070DBD00EA96
:101430000E80E78D828E8322E582C583F582A2D15C
:1014400033A2D592D11392D5ECCFFCEBCEFBEACDF3
:10145000FA226040F82582500274FFF582E824F8F1
:10146000501ECCCBCAF9E4CC24F85014CBCAF9E412
:10147000CB24F8500BCAF9E4CA24F85003790022AF
:1014800024086010F8C3EC13FCEB13FBEA13FAE931
:1014900013F9D8F122000000000000000000000055
:00000001FF
